:020000040800F2
:1000000008320020BD010008C5010008C701000832
:10001000C9010008CB010008CD0100080000000064
:1000200000000000000000000000000021060008A1
:10003000D101000800000000A105000871070008B8
:10004000D7010008D7010008D7010008D701000830
:10005000D7010008D7010008D7010008D701000820
:10006000D7010008D7010008D7010008D701000810
:10007000D7010008D7010008D7010008D701000800
:10008000D7010008D7010008D7010008D7010008F0
:10009000D7010008D7010008D7010008D7010008E0
:1000A000D7010008D7010008D7010008D7010008D0
:1000B000D7010008D7010008D7010008D7010008C0
:1000C000D7010008D7010008D7010008D7010008B0
:1000D000D7010008D7010008D7010008D7010008A0
:1000E000D7010008D7010008D701000800F002F886
:1000F00000F050F814A696E8000CB244B344DA4578
:1001000001D100F047F8BAE80F000FA696E83000DA
:10011000A5EB040504EB0607AAEB0704A7F101070A
:100120004FEA15154FEA3414A4F10104AC4201D38F
:1001300000F030F813F0010F18BFFB1A43F0010371
:1001400000F001F8DBE7184748340000683400008D
:10015000103A24BF78C878C1FAD8520724BF30C8F3
:1001600030C144BF04680C60704700007047000055
:100170000023002400250026103A28BF78C1FBD8B0
:10018000520728BF30C148BF0B6070471FB51FBD65
:1001900010B510BD00F0DBF8114603B400F070FCA0
:1001A00003BCFFF7F3FF00F06DFC00F0F5F803B4BB
:1001B000FFF7EEFF03BC00F0FDF8000009488047A0
:1001C00009480047FEE7FEE7FEE7FEE7FEE7FEE739
:1001D000FEE7FEE7FEE7FEE704480549054A064B51
:1001E0007047000091070008ED000008082C00206F
:1001F00008320020082E0020082E0020032A40F29A
:10020000308010F0030C00F0158011F8013BBCF1B8
:10021000020F624498BF11F801CB00F8013B38BFD0
:1002200011F8013BA2F1040298BF00F801CB38BFDE
:1002300000F8013B11F0030300F05780083AC0F0CA
:10024000088051F8043B083A51F804CBA0E80810A4
:10025000F5E7121D5CBF51F8043B40F8043BAFF3D7
:100260000080D20724BF11F8013B11F801CB48BF31
:1002700011F8012B24BF00F8013B00F801CB48BF67
:1002800000F8012B704702F0FF0343EA032242EA21
:10029000024200F002B84FF0000200B51346944647
:1002A0009646203922BFA0E80C50A0E80C50B1F1CE
:1002B0002001BFF4F7AF090728BFA0E80C5048BFE2
:1002C0000CC05DF804EB890028BF40F8042B08BF80
:1002D000704748BF20F8022B11F0804F18BF00F87C
:1002E000012B704770477047704710B5203AC0F037
:1002F0000B80B1E81850A0E81850B1E81850A0E8F9
:100300001850203ABFF4F5AF5FEA027C24BFB1E891
:100310001850A0E8185044BF18C918C0BDE81040D4
:100320005FEA827C24BF51F8043B40F8043B08BFDD
:100330007047D20728BF31F8023B48BF11F8012BA4
:1003400028BF20F8023B48BF00F8012B70477546D4
:1003500000F02CF8AE4605006946534620F0070031
:10036000854618B020B5FFF737FFBDE820404FF0B5
:1003700000064FF000074FF000084FF0000BAC46AE
:10038000ACE8C009ACE8C009ACE8C009ACE8C009F9
:1003900021F007018D46704710B50446AFF3008089
:1003A0002046BDE81040FFF702BF0000004870473C
:1003B0000800002001491820ABBEFEE7260002001D
:1003C0007047000088B007900691002005900490C7
:1003D00003900290019000900698C07800F00F0002
:1003E00005900698C078C006002806D5FFE7069855
:1003F0008178059808430590FFE706980078002863
:100400004BD0FFE707980068019000200390FFE7BA
:10041000039807283DD8FFE7039901208840029000
:10042000069800880299084004900498029988422E
:100430002AD1FFE703988000029002990F2088409C
:10044000009000990198884301900598029900FA5C
:1004500001F10198084301900698C078282806D138
:10046000FFE7039901208840079948610BE006984F
:10047000C078482806D1FFE70399012088400799F2
:100480000861FFE7FFE7FFE7FFE70398013003900C
:10049000BEE7019807990860FFE706980088B0F565
:1004A000807F50DBFFE707984068019000200390B1
:1004B000FFE70398072842D8FFE7039800F10801F7
:1004C0000120884002900698008802990840049014
:1004D0000498029988422DD1FFE70398800002908A
:1004E00002990F208840009000990198884301905C
:1004F0000598029900FA01F10198084301900698C5
:10050000C078282808D1FFE7039800F108010120EE
:10051000884007994861FFE70698C078482808D1C5
:10052000FFE7039800F1080101208840079908615E
:10053000FFE7FFE7FFE7039801300390B9E7019871
:1005400007994860FFE708B07047000082B001904B
:10055000ADF80210BDF802000199086102B07047C1
:1005600080B584B010200090012100F03BF8009885
:100570004FF460410291ADF80C108DF80F0002208D
:100580008DF80E0041F20000C4F20100019003A9B1
:10059000FFF718FF01980299FFF7D8FF04B080BD5C
:1005A000EFF30980BFF36F8F0D4B1A6820E9F00F4E
:1005B00010602DE908404FF0100080F3118801F021
:1005C00047FE4FF0000080F31188BDE8084019682D
:1005D0000868B0E8F00F80F30988BFF36F8F7047A9
:1005E000B402002082B001908DF803109DF8030042
:1005F00048B1FFE7019A41F21801C4F2020108680C
:100600001043086008E0019A41F21801C4F20201A7
:10061000086890430860FFE702B0704700000000E0
:10062000074B19680868B0E8F00F80F30988BFF33A
:100630006F8F4FF0000080F311884EF00D0E704761
:10064000B402002080B500F001F880BD84B0002025
:100650000390029041F20001C4F20201086840F4E4
:1006600080300860FFE741F20000C4F20200006839
:1006700000F400300290039801300390FFE70299E4
:100680000020019039B9FFE70398B0F5A06018BFCA
:1006900001200190FFE70198C0070028E3D1FFE7A0
:1006A00041F20000C4F2020000688003002803D574
:1006B000FFE70120029002E000200290FFE702988D
:1006C000012851D1FFE742F20001C4F2020108689B
:1006D00040F010000860086820F007000860086813
:1006E00040F00200086041F20401C4F202010091EE
:1006F0000868086008680860086840F4806008605E
:10070000086820F47C100860086840F4E81008606D
:1007100041F20001C4F20201086840F080700860F4
:10072000FFE741F20000C4F20200006880010028E7
:1007300001D4FFE7F5E741F20401C4F202010868C1
:1007400020F003000860086840F002000860FFE73E
:1007500041F20400C4F20200006800F00C00082816
:1007600001D0FFE7F4E700E0FFE704B070470000C6
:1007700080B54EF21000CEF20000006802F092FB4D
:10078000012803D0FFE701F03BFFFFE780BD000039
:1007900080B541F20002C4F20202106840F001008C
:1007A000106041F20401C4F2020108680023CFF690
:1007B000FF031840086010684FF6FF73CFF6F6632A
:1007C00018401060106820F480201060086820F441
:1007D000FE00086041F20801C4F202014FF41F005C
:1007E0000860FFF72FFF4EF60851CEF200014FF0E0
:1007F0000060086080BD000080B586B00590FFE70E
:1008000042F68C30C2F2000003900068032101918F
:1008100001F0D0FD40F6B830029001F069FB01997B
:100820000398006801F096FD03980068042101F028
:10083000C1FD029801F05CFB039800680721049158
:1008400001F0B8FD029801F053FB03980499006889
:1008500001F080FD4FF4FA6001F04AFBD0E70000A0
:1008600080B584B00390FFE742F68C30C2F20000FE
:1008700000686A464FF0FF311160012100231A46DB
:1008800001F008FE02909DF80800C00748B1FFE79C
:1008900041F20C01C4F20101086880F400500860C4
:1008A000FFE74FF4FA7001F023FBDDE780B584B079
:1008B0000390FFE742F68C30C2F2000000686A46FF
:1008C0004FF0FF311160022100231A4601F0E2FDD2
:1008D00002909DF808008007002809D5FFE741F243
:1008E0000C01C4F20101086880F480400860FFE751
:1008F0004FF42F7001F0FCFADCE7000080B584B003
:100900000390FFE742F68C30C2F2000000686A46AE
:100910004FF0FF311160042100231A4601F0BAFDA7
:1009200002909DF808004007002809D5FFE741F232
:100930000C01C4F20101086880F400400860FFE780
:100940004FF47A7001F0D4FADCE7000080B582B091
:10095000019000F0EDF838B1FFE7019800684FF022
:10096000FF3102F0FBF8FFE702B080BD80B582B036
:1009700001900198006801F077FA00200090FFE7ED
:10098000009804281AD8FFE701980068009A40F2FE
:10099000F811C2F2000151F82210884209D1FFE794
:1009A000009A40F2F811C2F20001002041F8220042
:1009B00004E0FFE7009801300090E1E702B080BD5D
:1009C00080B584B002900299002008600190FFE792
:1009D000019804282BD8FFE7019940F2F810C2F2E1
:1009E000000050F82100E8B9FFE7019800EB800112
:1009F00040F26800C2F2000000EB011101200090FB
:100A000001F030FE02460098019B40F2F811C2F25C
:100A1000000141F82320019A51F82210029A116036
:100A2000039018E0FFE7019801300190D0E700F053
:100A30007FF830B1FFE7012001F000FE0299086065
:100A4000FFE70298006818B9FFE70020039002E072
:100A500001200390FFE7039804B080BD80B582B009
:100A6000019000F065F840B1FFE7019800680023AD
:100A700019461A4601F0B2FEFFE702B080BD000041
:100A80007047000080B586B0002003900590FFF706
:100A90007FFEFFF765FD01F073FC039B42F68C318E
:100AA000C2F20001086069464B600220086040F213
:100AB000F970C0F6000043F27B51C0F600018022BD
:100AC000029202F065F9029A039B69464B6001208D
:100AD0000490086040F66100C0F6000043F26C51DB
:100AE000C0F6000102F054F9029A039B049869468B
:100AF0004B60086040F6AD00C0F6000043F2715153
:100B0000C0F6000102F044F9029A039B049869467A
:100B10004B60086040F6FD00C0F6000043F27651DD
:100B2000C0F6000102F034F901F028FBFFE7FEE710
:100B300080B582B040F20C20C2F20000007880B98B
:100B4000FFE702F0AFF9012808D0FFE740F20C21DF
:100B5000C2F2000101200870019005E00020019020
:100B600002E001200190FFE7019802B080BD000083
:100B700080B584B00390029142F6F830C2F20000D2
:100B80000068009040F2B420C2F200000068043017
:100B900000F0FEFF08B9FFE700E0FFE7039801302F
:100BA00080B9FFE7029868B1FFE740F2B420C2F2D3
:100BB00000000068011D42F6D030C2F2000001F0D2
:100BC000A5F83DE00098039908440190019840F28F
:100BD000B421C2F200010968486001980099884276
:100BE0000ED2FFE740F2C420C2F20000006840F2DB
:100BF000B421C2F200010968043101F051F81EE08D
:100C000040F2BC20C2F20000006840F2B421C2F2FF
:100C100000010968043101F043F8019842F69C3163
:100C2000C2F200010968884207D2FFE7019842F644
:100C30009C31C2F20001086000E0FFE7FFE7FFE738
:100C400004B080BD80B582B0019001F07DF842F221
:100C50002C71C2F2000108680130086040F2B42033
:100C6000C2F20000006898B9FFE7019840F2B42191
:100C7000C2F20001086042F22C70C2F2000000686B
:100C8000012803D1FFE700F0EDFA00E0FFE71CE0E8
:100C900042F6C430C2F200000068A0B9FFE740F29B
:100CA000B420C2F200000068C06A0199C96A884293
:100CB00007D8FFE7019840F2B421C2F200010860B2
:100CC00000E0FFE700E0FFE7FFE742F23870C2F222
:100CD00000000168013101600068019948640198D1
:100CE000C06A42F23C71C2F200010968884208D928
:100CF000FFE70198C06A42F23C71C2F2000108604D
:100D0000FFE70199C86A00EB800240F2CC20C2F2F2
:100D1000000000EB8200043100F0F8FF01F02CF835
:100D200042F6C430C2F200000068C8B1FFE740F2EA
:100D3000B420C2F200000068C06A0199C96A884202
:100D40000CD2FFE74EF60451CEF200014FF0805076
:100D50000860BFF34F8FBFF36F8F00E0FFE700E045
:100D6000FFE702B080BD000080B584B000F0ECFF6A
:100D700042F6FC30C2F20000006878BBFFE742F6A2
:100D80003830C2F20000029000F06AFF42F64C30A8
:100D9000C2F20000039000F063FF0299039840F252
:100DA000B822C2F20002116040F2C821C2F2000172
:100DB000086069460020086040F20D22C2F200027D
:100DC00040F26023C2F200030520102101F090FCE4
:100DD00042F6FC31C2F20001086000E0FFE700F0DB
:100DE000CBFF04B080BD000080B582B0FFE742F2C7
:100DF0003070C2F20000006808B3FFE700F0A4FF03
:100E000042F6E430C2F20000C068C0680190019868
:100E1000043000F0BDFE42F22C71C2F200010868FD
:100E20000138086042F23071C2F2000108680138EE
:100E3000086000F0A1FF019800F08CF8D7E702B03D
:100E400080BD000080B582B0019000910198006CD7
:100E5000B8B1FFE70199C8680A6C1044C8600198EE
:100E60008168C068884204D3FFE701990868C860B8
:100E700000E0FFE70098019AD168126CFFF7BEF915
:100E8000FFE702B080BD000080B586B005900491F8
:100E90000392002002900598806B01900598006CE9
:100EA00078B9FFE70598006848B9FFE705988068BA
:100EB00002F0EEF8029005990020886000E0FFE75C
:100EC00041E00398B8B9FFE7059A04995068126C9D
:100ED000FFF794F9059948680A6C10444860059931
:100EE00048688968884204D3FFE705990868486024
:100EF00000E0FFE726E0059A0499D068126CFFF73E
:100F00007DF90599C8680A6C801AC860059801685F
:100F1000C068884206D2FFE7059988680A6C801A83
:100F2000C86000E0FFE70398022809D1FFE70198B5
:100F300020B1FFE701980138019000E0FFE700E0F1
:100F4000FFE7FFE7FFE70198013005998863029802
:100F500006B080BD80B582B00190019890F859002C
:100F600040B9FFE70198006B00F01AFF019800F00C
:100F700017FF0BE0019890F85900012804D1FFE712
:100F8000019800F00DFF00E0FFE7FFE702B080BD31
:100F900082B001900198406A38B1FFE70198006B78
:100FA0000068C0F13800009002E000200090FFE7E8
:100FB000009802B07047000082B0019040F2B82063
:100FC000C2F2000000680068B0FA80F040090199A0
:100FD00008600198006848B9FFE740F2B820C2F203
:100FE00000000068C0680068009002E000200090E7
:100FF000FFE7009802B0704784B04FF400500090B3
:1010000040F22C70C2F2000001909DF804004007ED
:1010100088B1FFE7019807300190019820F00700A0
:101020000190019A40F22C71C2F200010098891AD5
:1010300008440090FFE701980290029942F6C830F8
:10104000C2F200000160002141600298009A104441
:101050000190019808380190019820F00700019054
:10106000019A40F2C020C2F20000026002685160A2
:1010700002681160029903910199039A891A5160DB
:101080000068039908600398406842F69831C2F2FC
:10109000000108600398406842F69031C2F20001F6
:1010A000086042F66031C2F200014FF00040086073
:1010B00004B0704780B582B00190FFE7FFF794FE5F
:1010C00040F2CC20C2F20000006802280CD3FFE7F7
:1010D0004EF60451CEF200014FF080500860BFF38D
:1010E0004F8FBFF36F8F00E0FFE7E7E780B582B077
:1010F0000190019868B1FFE701980023836001988F
:1011000003600198C360019819461A4601F066FB16
:1011100000E0FFE702B080BD80B584B0DDF818C004
:101120000390029101928DF80330029818B9FFE7FD
:101130000698006003E0019806990860FFE70398AD
:101140000699C8630298069908640698012101F07F
:10115000F5FA9DF80300069981F84C0004B080BDB3
:1011600080B588B0DDF834C0DDF830C0DDF82CC0C3
:10117000DDF828C007900691059204930C98006B47
:1011800005998900A522FFF77EF80C98006B059958
:1011900000EB810004380390039820F007000390CF
:1011A0000698F8B1FFE700200290FFE702980F28A9
:1011B00013D8FFE70698029A805C0C99114481F8D5
:1011C000340006980299405C08B9FFE705E0FFE7A4
:1011D000FFE7029801300290E8E70C99002081F8BF
:1011E000430004E00C99002081F83400FFE70A98DE
:1011F000382803D3FFE737200A9000E0FFE70A987A
:101200000C99C8620A980C99C8640C990020019046
:1012100008650C98043000F03BFD0C98183000F085
:1012200037FD01980C9909610A99C1F138010C9AAE
:1012300091610C9949620C9948650C9981F85800A4
:1012400003980799049A00F07BFC0C9908600B98AE
:1012500020B1FFE70C980B99086000E0FFE708B0A9
:1012600080BD000080B584B000200390FFE70398A4
:10127000372810D8FFE7039800EB800140F2CC201C
:10128000C2F2000000EB810000F0EAFCFFE70398E7
:1012900001300390EBE742F66430C2F200000190A7
:1012A00000F0DEFC42F67830C2F20000029000F05E
:1012B000D7FC42F6B030C2F2000000F0D1FC42F69A
:1012C000E430C2F2000000F0CBFC42F6D030C2F2B3
:1012D000000000F0C5FC0199029840F2BC22C2F265
:1012E0000002116040F2C421C2F20001086004B0A3
:1012F00080BD000083B0029042F6C830C2F2000008
:101300000190FFE7019800680299884205D2FFE743
:10131000FFE7019800680190F4E7019800900098B9
:101320000199496808440299884209D1FFE7029867
:10133000426801994868104448600198029000E0B2
:10134000FFE70298009000980299496808440199C3
:101350000968884220D1FFE70198006840F2C02167
:10136000C2F20001096888420DD0FFE701980068C9
:101370004268029948681044486001980068006813
:101380000299086007E040F2C020C2F20000006845
:1013900002990860FFE704E001980068029908607C
:1013A000FFE701980299884204D0FFE7029801996B
:1013B000086000E0FFE703B07047000080B586B02A
:1013C00005900491039202930020019004980599DE
:1013D00048600598006104980399884216D8FFE791
:1013E00003980299401A05998969884203D3FFE757
:1013F0000120019009E040F2C820C2F2000000681C
:101400000599043100F04CFCFFE717E003980299BE
:10141000884208D2FFE704980299884203D3FFE785
:101420000120019009E040F2B820C2F200000068FB
:101430000599043100F034FCFFE7FFE7019806B09E
:1014400080BD000080B582B0019000F07DFC019865
:10145000806B18B9FFE70120009002E000200090A7
:10146000FFE700F089FC009802B080BD80B582B033
:10147000019000F069FC0198806B0199C96B88426A
:1014800003D1FFE70120009002E000200090FFE779
:1014900000F072FC009802B080BD000006480068B1
:1014A000006880F3088862B661B6BFF34F8FBFF360
:1014B0006F8F00DF00BF000008ED00E080B586B050
:1014C0000590049140F2B820C2F200000068C068A4
:1014D000C06802900298043000F05AFB029890F81D
:1014E00028004007002815D5FFE70298059B816971
:1014F0001944049AFFF762FF50B1FFE70298059A7A
:10150000694600230B60194601F0E6FF039000E0F6
:10151000FFE707E0029991F8280000F0FE0081F84B
:101520002800FFE70298016A884706B080BD0000E6
:1015300080B58CB0FFE742F6FC30C2F200000068D4
:1015400008A9002201F060FA002800F08C80FFE773
:101550000898B0F1FF3F09DCFFE708A804300390CA
:1015600003990A6848688968904700E0FFE708988F
:10157000002800F17780FFE70A98079007984069F4
:1015800028B1FFE70798043000F002FB00E0FFE716
:1015900006A800F0DDF804900898029009285FD8AA
:1015A0000299DFE801F00505052F374905052F37BA
:1015B000079991F8280040F0010081F82800079869
:1015C000099B81691944049AFFF7F8FEC0B1FFE74F
:1015D0000798016A8847079890F828004007002874
:1015E0000CD5FFE70798099982690A4469460023E8
:1015F0000B60194601F070FF059000E0FFE700E086
:10160000FFE72EE0079991F8280000F0FE0081F82E
:10161000280026E0079991F8280040F0010081F8A1
:1016200028000998079988610798049B81691944E3
:101630001A46FFF7C3FE14E0079890F828008007C9
:10164000002804D4FFE7079800F0AAFB07E00799F9
:1016500091F8280000F0FE0081F82800FFE700E084
:10166000FFE7FFE767E70CB080BD000080B584B0FE
:101670000390029100F0E4FD684600F069F80190E3
:101680000098D8BBFFE7029860B9FFE7039801997B
:10169000884207D8FFE701F031FE03980199FFF770
:1016A0000DFF2AE0029858B1FFE740F2C820C2F2CD
:1016B000000000680068B0FA80F040090290FFE77F
:1016C00042F6FC30C2F2000000680399019A891AC0
:1016D000029A00F0DBFB01F011FE60B9FFE74EF665
:1016E0000451CEF200014FF080500860BFF34F8FDD
:1016F000BFF36F8F00E0FFE7FFE702E001F0FEFDC0
:10170000FFE704B080BD000081B040F2BC20C2F20F
:1017100000000068006840B9FFE742F69C31C2F261
:1017200000014FF0FF3008600FE040F2BC20C2F231
:1017300000000068C068C06800900098406842F6E9
:101740009C31C2F200010860FFE701B07047000061
:1017500080B582B0019001F0C1FB0090009840F28A
:10176000B021C2F200010968884206D2FFE700F00A
:1017700011F801990120086003E001990020086038
:10178000FFE7009840F2B021C2F200010860009823
:1017900002B080BD80B586B0FFE740F2B820C2F24B
:1017A000000000680068002840D0FFE740F2B82041
:1017B000C2F200000168C968096805910068C06844
:1017C000C06802900298043000F0E2F90298016AC1
:1017D0008847029890F828004007002824D5FFE7A2
:1017E00005980299896908440490049805998842EB
:1017F0000FD9FFE70498029948600298006140F20F
:10180000B820C2F2000000680299043100F048FAE2
:1018100009E00298059A694600230B60194601F019
:101820005BFE0190FFE700E0FFE7B6E740F2B82279
:10183000C2F200021068039040F2C821C2F2000117
:10184000086810600398086006B080BD82B0002070
:1018500000904FF0100080F31188BFF36F8FBFF33B
:101860004F8F0190FFE7009808B9FFE7FBE702B050
:101870007047000084B00390029101920020009014
:10188000019850B9FFE703980299084203D0FFE797
:101890000120009000E0FFE70AE003980299084069
:1018A000884203D1FFE70120009000E0FFE7FFE757
:1018B000009804B07047000080B584B00390FFE743
:1018C00001A8FFF779FB029002980199FFF7CEFE7D
:1018D000FFF72EFEF4E7000080B582B0019000F023
:1018E00033FA019890F845008DF80300FFE79DF961
:1018F0000300012816DBFFE70198406A58B1FFE7B3
:101900000198243001F0A0FC18B1FFE700F028FB9B
:1019100000E0FFE700E005E09DF8030001388DF8E6
:101920000300E4E70199FF2081F8450000F024FA64
:1019300000F00AFA019890F844008DF80200FFE7E1
:101940009DF90200012816DBFFE70198006980B1CC
:10195000FFE70198103001F077FC18B1FFE700F0C5
:10196000FFFA00E0FFE79DF8020001388DF8020061
:1019700000E000E0E4E70199FF2081F8440000F076
:10198000FBF902B080BD000080B586B00590002054
:10199000019000F055FC40F2C020C2F20000006847
:1019A00018B9FFE7FFF728FB00E0FFE7059842F6CC
:1019B0006031C2F200010968084240F0A580FFE7EB
:1019C000059880B1FFE70598083005909DF8140050
:1019D000400730B1FFE7059820F007000830059078
:1019E00000E0FFE700E0FFE70598002800F08A80AC
:1019F000FFE7059842F69031C2F20001096888427B
:101A000000F28080FFE742F6C830C2F20000039087
:101A100000680490FFE704984168059A002091420D
:101A2000009007D2FFE704980068002818BF012043
:101A30000090FFE70098C00730B1FFE704980390DB
:101A4000049800680490E6E7049840F2C021C2F2CE
:101A500000010968884253D0FFE703980068083006
:101A600001900498006803990860049840680599FB
:101A7000401A112811D3FFE70498059908440290F1
:101A8000049840680599401A02994860059804999D
:101A900048600298FFF72EFC00E0FFE704984268D8
:101AA00042F69030C2F200000168891A01600068B5
:101AB00042F69831C2F20001096888420BD2FFE772
:101AC00042F69030C2F20000006842F69831C2F24D
:101AD0000001086000E0FFE742F66030C2F200005B
:101AE000026804994868104348600499002008601F
:101AF00042F6A431C2F2000108680130086000E03B
:101B0000FFE700E0FFE700E0FFE701F0F7FB0198E7
:101B100006B080BD40F2B420C2F20000006848B1B7
:101B2000FFE740F2B420C2F200000168086D013006
:101B30000865FFE740F2B420C2F200000068704779
:101B400083B00290019100920298043802900299A9
:101B50004FF080700860029804380290019820F0DD
:101B6000010002990860029804380290029941F637
:101B70004D00C0F6000008600298143802900098EA
:101B800002990860029820380290029803B07047CA
:101B900082B00190019800690090019841688068C6
:101BA0008860019948688968486000984068019990
:101BB000884205D1FFE7019880680099486000E0FD
:101BC000FFE7019900200861009908680138086062
:101BD0000098006802B0704781B040F2B421C2F2B0
:101BE00000010868806900900868C06AC0F1380088
:101BF00009688861009801B07047000083B00290C6
:101C000001910092029942F64010C2F20000086071
:101C1000019942F24070C2F20000086000998020F1
:101C2000086003B07047000083B0029001910092F9
:101C3000029942F6DC20C2F200000860019942F6E7
:101C40009C10C2F20000086000995020086003B0A8
:101C50007047000082B00190009102B07047000010
:101C600081B00090009901F10800486000994FF0A0
:101C7000FF308860009901F10800C860009901F107
:101C80000800086100990020086001B0704700005A
:101C900081B0009000990020086101B070470000F9
:101CA00084B003900291029800680090009801307F
:101CB00020B9FFE703980069019010E0039808300D
:101CC0000190FFE70198406800680099884205D8B4
:101CD000FFE7FFE7019840680190F3E7FFE701980D
:101CE00040680299486002984168886001980299AA
:101CF00088600298019948600398029908610399E5
:101D000008680130086004B07047000083B002909A
:101D100001910298406800900098019948600098ED
:101D200080680199886001980099896848600198E5
:101D30000099886002980199086102990868013049
:101D4000086003B07047000081B04FF0100080F3CE
:101D50001188BFF36F8FBFF34F8F009040F20400E4
:101D6000C2F200000168013101600068012801D160
:101D7000FFE7FFE701B0704781B040F20400C2F214
:101D80000000016801390160006830B9FFE70020F8
:101D90000090009880F31188FFE701B070470000C1
:101DA00080B584B00390039802900398C0B3FFE716
:101DB000029808380290029801900198406842F613
:101DC0006031C2F200010968084227D0FFE701989C
:101DD000006808BBFFE742F66030C2F2000002680C
:101DE000019948689043486000F02AFA01984268D7
:101DF00042F69031C2F20001086810440860019870
:101E0000FFF778FA42F6A831C2F200010868013003
:101E1000086001F073FA00E0FFE700E0FFE7FFE78A
:101E200004B080BD4EF21001CEF200010020086027
:101E30004EF21802CEF20002106040F20000C2F230
:101E40000000006844F6D352C1F26202A0FB020215
:101E50004FF0FF3000EB92104EF21402CEF200026F
:101E6000106007200860704780B582B0019001982B
:101E70000090009890F8460020B9FFE70098FFF71F
:101E80008FFF00E0FFE702B080BD000080B584B0A6
:101E900003900291019203980090FFF755FF00987C
:101EA00090F94400013028B9FFE70099002081F83B
:101EB0004400FFE7009890F94500013028B9FFE79A
:101EC0000099002081F84500FFE7FFF755FF0098D3
:101ED000806B38B9FFE7009824300299019A00F02E
:101EE0005BF800E0FFE70098FFF7F6FC04B080BD68
:101EF00080B582B0019000200090019850B1FFE7BA
:101F000000F09EF901980021FEF732FE01F0F6F98B
:101F1000009000E0FFE7009860B9FFE74EF604513B
:101F2000CEF200014FF080500860BFF34F8FBFF337
:101F30006F8F00E0FFE702B080BD000081B000902D
:101F400042F6A030C2F2000000680099086042F634
:101F5000F830C2F2000000680099486001B0704794
:101F600042F60441C2F200010120086070470000FF
:101F700080B582B001900091019840F2B421C2F284
:101F8000000109681831FFF78BFE00980121FEF768
:101F9000EFFD02B080BD000080B584B003900291D7
:101FA0000192039840F2B421C2F20001096818318D
:101FB000FFF7ACFE019820B1FFE74FF0FF30029031
:101FC000FFE702980199FEF7D3FD04B080BD000041
:101FD00080B584B0039002910192029840F00040D5
:101FE00040F2B421C2F200010A68906103980968C6
:101FF0001831FFF78BFE01980121FEF7B9FD04B0FF
:1020000080BD000080B586B00590049105980390CE
:10201000012000900598002867D0FFE70398C06C66
:102020000499884203D2FFE70498019003E00398E3
:10203000C06C0190FFE70398C06A0199884252D0B2
:10204000FFE70398006D01284BD1FFE70398C06AB2
:10205000029001980399C8620398C07E0006002888
:1020600006D4FFE70198C0F138000399886100E0C9
:10207000FFE703984069029901EB810240F2CC210D
:10208000C2F2000101EB8201884228D1FFE70398E8
:102090000430FFF77DFD08B9FFE700E0FFE7039894
:1020A000C06A42F23C71C2F200010968884208D954
:1020B000FFE70398C06A42F23C71C2F20001086077
:1020C000FFE70399C86A00EB800240F2CC20C2F21D
:1020D000000000EB82000431FFF718FE00E0FFE78C
:1020E00000E0FFE700E0FFE700E0FFE706B080BDAB
:1020F00080B584B003900291029840F000400399AB
:1021000008600398C06801900398FFF741FD0198AB
:102110000430FFF73DFD0198C06A42F23C71C2F203
:1021200000010968884208D9FFE70198C06A42F2B5
:102130003C71C2F200010860FFE70199C86A00EB38
:10214000800240F2CC20C2F2000000EB8200043199
:10215000FFF7DCFD0198C06A40F2B421C2F2000131
:102160000968C96A884207D9FFE742F60441C2F20A
:10217000000101200860FFE704B080BD80B58AB08F
:10218000002004900790069007A806A905AAFFF76B
:1021900035FD049B059A0699DDF81CC06846C0F819
:1021A00008C04160036041F2B500C0F6000043F290
:1021B0008051C0F6000100F03BFE014642F694302B
:1021C000C2F200000160006818B1FFE7012008902A
:1021D00002E000200890FFE70898012804D1FFE7FB
:1021E00001F03EF9089000E0FFE70898012823D1AC
:1021F000FFE74FF0100080F31188BFF36F8FBFF33C
:102200004F8F099042F69C31C2F200014FF0FF302F
:10221000086042F6C431C2F200010120086042F6B3
:10222000F831C2F200010020086000F0C9F908B1DD
:10223000FFE700E0FFE700E0FFE70AB080BD000035
:1022400042F23471C2F20001086801300860704740
:1022500080B584B042F23470C2F20000006838B138
:10226000FFE742F60441C2F20001012008606FE07E
:1022700042F60441C2F200010020086040F2B4209E
:10228000C2F200000068006B03904FF0A53002908E
:1022900003980068B0F1A53F12D1FFE703984068AA
:1022A000B0F1A53F0CD1FFE703988068B0F1A53FDE
:1022B00006D1FFE70398C068B0F1A53F0AD0FFE759
:1022C00040F2B421C2F20001086809683431FFF716
:1022D000C1FCFFE742F23C70C2F2000000680190CE
:1022E000FFE7019800EB800140F2CC20C2F2000031
:1022F00050F8210020B9FFE7019801380190F0E77C
:10230000019800EB800140F2CC20C2F2000000EB0B
:1023100081000090009948684068486000994868CA
:102320000831884205D1FFE7009948684068486055
:10233000FFE700984068C06840F2B421C2F2000193
:102340000860019842F23C71C2F200010860FFE7A8
:1023500004B080BD80B584B00390029103980190D1
:10236000FFF7F2FC019800680090029A0199086852
:1023700090430860FFF700FD009804B080BD0000A6
:1023800080B582B02020FFF7FFFA0190019860B17C
:10239000FFE7019900200090086001980430FFF7E2
:1023A0005FFC00980199087700E0FFE7019802B010
:1023B00080BD000080B58CB00B900A910020059084
:1023C0000B9902910190029804300690069808300B
:1023D0000790FFF735FF0698C06809900A9A02999E
:1023E000086810430860FFE709980799884246D0BB
:1023F000FFE7099840680890099800680490002059
:1024000001909DF8130000060390049820F07F408F
:1024100004909DF80F00400700280BD4FFE70498B4
:1024200002990968084203D0FFE70120019000E00B
:10243000FFE70BE00499029800680840884203D146
:10244000FFE70120019000E0FFE7FFE7019898B166
:10245000FFE79DF80F00C00728B1FFE70499059832
:102460000843059000E0FFE709980299096841F0E8
:102470000071FFF73DFEFFE708980990B4E7059A61
:10248000029908689043086000F038FF02980068DD
:102490000CB080BD80B58CB0DDF838C00B900A91CF
:1024A000099208930B980790002005900290FFF77F
:1024B000C7FE07980068019001980A99089AFFF7EB
:1024C000D9F90490049878B1FFE7019806900020AC
:1024D0000E90099830B1FFE70A9A0799086890436F
:1024E000086000E0FFE725E00E9828B9FFE70198B3
:1024F0000690012002901CE0099828B1FFE705989A
:1025000040F08070059000E0FFE7089828B1FFE7F1
:10251000059840F08060059000E0FFE707980430E0
:102520000A99059A11430E9AFFF752FD0020069072
:10253000FFE7FFE700F0E2FE03900E9800283CD092
:10254000FFE7039860B9FFE74EF60451CEF20001B1
:102550004FF080500860BFF34F8FBFF36F8F00E0E4
:10256000FFE7FFF739FB06909DF81B008007002866
:102570001DD4FFE7FFF7E8FB079800680690069870
:102580000A99089AFFF776F958B1FFE7099830B130
:10259000FFE70A9A079908689043086000E0FFE7A0
:1025A00000E0FFE701200290FFF7E6FB00E0FFE715
:1025B000069820F07F400690FFE706980CB080BD9B
:1025C00080B582B04EF62051CEF20001086840F48A
:1025D0007F000860086840F07F400860FFF722FC39
:1025E00040F20401C2F20001002001900860FEF7F1
:1025F00055FFFFF72DFEFFF729F9019802B080BDC6
:1026000080B582B04FF0100080F31188BFF36F8F58
:10261000BFF34F8F009000F06BFC40B1FFE74EF628
:102620000451CEF200014FF080500860FFE7002017
:102630000190019880F3118802B080BD80B584B00C
:102640008DF80F0001200190002100919DF80F20CE
:1026500000F022F802900298FEF748FD029804B0BC
:1026600080BD000080B586B08DF817000491012070
:102670000290002201929DF81710049BEC46CCF8C2
:102680000010114600F034F803900398FEF72EFD79
:10269000039806B080BD000080B588B00790069111
:1026A0008DF81720079806994843039003985030F7
:1026B000FFF76AF904900498B0B1FFE7049802901C
:1026C0000298503002900499002081F84600079843
:1026D0000699029A9DF81730DDF810C0EE46CEF844
:1026E00000C0FEF719FD00E0FFE7049808B080BDC8
:1026F00080B588B084460A98CDF81CC00691059232
:1027000004938DF80F0004980290029888B1FFE7B7
:102710000299012081F8460007980699059A9DF8CC
:102720000F30DDF808C0EE46CEF800C0FEF7F4FC2E
:1027300000E0FFE7029808B080BD000080B584B0DB
:102740000390029103980190FFF7FEFA01990B683C
:10275000C86B0A6C00FB0230886001990020886316
:1027600001990868486001990B68C86B0A6C0138C8
:1027700000FB0230C8600199FF2081F844000199F4
:1027800081F845000298D0B9FFE701980069A0B12F
:10279000FFE70198103000F057FD60B1FFE74EF6FB
:1027A0000451CEF200014FF080500860BFF34F8F0C
:1027B000BFF36F8F00E0FFE700E0FFE708E001985C
:1027C0001030FFF74DFA01982430FFF749FAFFE780
:1027D000FFF7D2FA012004B080BD000080B58AB0B6
:1027E00008900791069205930020049008980090A5
:1027F000FFE7FFF7A9FA0098806B0099C96B884240
:1028000004D3FFE70598022834D1FFE70098079921
:10281000059AFEF739FB03900098406AA0B1FFE7E4
:102820000098243000F010FD60B1FFE74EF604512F
:10283000CEF200014FF080500860BFF34F8FBFF31E
:102840006F8F00E0FFE710E0039860B1FFE74EF6FE
:102850000451CEF200014FF080500860BFF34F8F5B
:10286000BFF36F8F00E0FFE7FFE7FFF785FA012076
:10287000099065E0069828B9FFE7FFF77DFA002088
:1028800009905DE0049830B9FFE701A8FFF756FB17
:102890000120049000E0FFE7FFE7FFE7FFF76CFA95
:1028A000FFF7CEFCFFF750FA009890F94400013092
:1028B00028B9FFE70099002081F84400FFE700985D
:1028C00090F94500013028B9FFE70099002081F810
:1028D0004500FFE7FFF750FA01A806A900F00EFA3D
:1028E00028BBFFE70098FEF7C1FDC8B1FFE70098DD
:1028F00010300699FFF73CFB0098FEF7EDFF00F063
:10290000FDFC60B9FFE74EF60451CEF200014FF036
:1029100080500860BFF34F8FBFF36F8FFFE705E074
:102920000098FEF7D9FF00F0E9FCFFE707E0009808
:10293000FEF7D2FF00F0E2FC0020099000E058E72B
:1029400009980AB080BD000080B58CB0089007914E
:102950000692059308980290EFF311814FF0100052
:1029600080F31188BFF36F8FBFF34F8F0A910990E7
:102970000A9803900298806B0299C96B884204D32D
:10298000FFE70598022833D1FFE7029890F8450049
:102990008DF807000298806B009002980799059ABD
:1029A000FEF772FA9DF907000130B8B9FFE7029807
:1029B000406A88B1FFE70298243000F045FC48B136
:1029C000FFE7069820B1FFE706990120086000E0C4
:1029D000FFE700E0FFE700E0FFE706E09DF8070003
:1029E0000130029981F84500FFE70120049002E0E0
:1029F00000200490FFE703980B900B9880F3118858
:102A000004980CB080BD000080B58AB00890079192
:102A100006920020059008980290FFE7FFF794F9CE
:102A20000298806B0190019830B3FFE702980799F4
:102A3000FEF708FA01980138029988630298006944
:102A4000A0B1FFE70298103000F0FEFB60B1FFE795
:102A50004EF60451CEF200014FF080500860BFF3F3
:102A60004F8FBFF36F8F00E0FFE700E0FFE7FFF756
:102A700083F9012009906DE0069828B9FFE7FFF778
:102A80007BF90020099065E0059830B9FFE703A8BD
:102A9000FFF754FA0120059000E0FFE7FFE7FFE7AA
:102AA000FFF76AF9FFF7CCFBFFF74EF9029890F9B0
:102AB0004400013028B9FFE70299002081F8440062
:102AC000FFE7029890F94500013028B9FFE7029925
:102AD000002081F84500FFE7FFF74EF903A806A99B
:102AE00000F00CF930BBFFE70298FEF7ABFCD0B169
:102AF000FFE7029824300699FFF73AFA0298FEF7AA
:102B0000EBFE00F0FBFB60B9FFE74EF60451CEF29E
:102B100000014FF080500860BFF34F8FBFF36F8FFD
:102B200000E0FFE705E00298FEF7D6FE00F0E6FBC6
:102B3000FFE70EE00298FEF7CFFE00F0DFFB029801
:102B4000FEF780FC18B1FFE70020099002E0FFE7E4
:102B5000FFE763E709980AB080BD000080B58AB03E
:102B60000890079100200690089903910290FFE7D2
:102B7000FFF7EAF80398806B0190019860B3FFE7D4
:102B800001980138039988630398006828B9FFE722
:102B9000FEF7C0FF0399886000E0FFE70398006933
:102BA000A0B1FFE70398103000F04EFB60B1FFE7E3
:102BB0004EF60451CEF200014FF080500860BFF392
:102BC0004F8FBFF36F8F00E0FFE700E0FFE7FFF7F5
:102BD000D3F8012009908DE0079828B9FFE7FFF7A7
:102BE000CBF80020099085E0069830B9FFE704A8EB
:102BF000FFF7A4F90120069000E0FFE7FFE7FFE7F9
:102C0000FFF7BAF8FFF71CFBFFF79EF8039890F95F
:102C10004400013028B9FFE70399002081F84400FF
:102C2000FFE7039890F94500013028B9FFE70399C1
:102C3000002081F84500FFE7FFF79EF804A807A9E8
:102C400000F05CF8A8BBFFE70398FEF7FBFB48B376
:102C5000FFE70398006850B9FFE7FFF775F803989E
:102C6000806800F069FA0290FFF786F800E0FFE75D
:102C7000039824300799FFF77BF90398FEF72CFEA1
:102C800000F03CFB60B9FFE74EF60451CEF20001C4
:102C90004FF080500860BFF34F8FBFF36F8F00E09D
:102CA000FFE705E00398FEF717FE00F027FBFFE7BC
:102CB0001FE00398FEF710FE00F020FB0398FEF7DC
:102CC000C1FBA0B1FFE7029870B1FFE7FFF73CF846
:102CD0000398FEF75DF90090039880680099FFF76C
:102CE00091F9FFF749F8FFE70020099002E0FFE7BC
:102CF000FFE73DE709980AB080BD000080B586B0C7
:102D000005900491FFF720F842F6F830C2F2000077
:102D100000680290029805994968401A0190049849
:102D20000068013018B9FFE7002003902BE042F65D
:102D3000A030C2F20000006805990968884209D0F5
:102D4000FFE7029805994968884203D3FFE701200D
:102D5000039017E001980499096888420BD2FFE7B5
:102D6000019A04990868801A08600598FFF7E6F848
:102D70000020039005E004990020086001200390E2
:102D8000FFE7FFE7FFE7FEF7F7FF039806B080BD18
:102D900070B58CB0DDF844C0DDF840C00B900A91EE
:102DA000ADF826200893BDF826008000FEF7ECFD64
:102DB0000590059880B1FFE75C20FEF7E5FD0790E0
:102DC000079820B1FFE705980799086303E0059885
:102DD000FEF7E6FFFFE702E000200790FFE7079815
:102DE000F0B1FFE70798002680F859600B980A9920
:102DF000BDF82620089BDDF840C0119C079DEE46DB
:102E0000CEF80C60CEF80850CEF80440CEF800C0E2
:102E1000FEF7A6F90798FDF715FF0120069003E0DD
:102E20004FF0FF300690FFE706980CB070BD000031
:102E3000B0B58AB0DDF840C0DDF83CC0DDF838C080
:102E40000990089107920693109820B3FFE70F9816
:102E500008B3FFE7109805900F9805990863059946
:102E6000022081F8590009980899079A069BDDF815
:102E700038C0059CEE460025CEF80C50CEF8084030
:102E800004ACCEF80440CEF800C0FEF769F905980E
:102E9000FDF7D8FE02E000200490FFE704980AB096
:102EA000B0BD000081B042F6C430C2F2000000683C
:102EB00018B9FFE7012000900DE042F23470C2F231
:102EC0000000006818B9FFE70220009002E000202F
:102ED0000090FFE7FFE7009801B0704781B042F62D
:102EE000F830C2F2000000680090009801B070470E
:102EF00080B586B00020039042F23470C2F2000028
:102F00000068002840F0B880FFE742F6F831C2F2CE
:102F10000001086801300290029808600298C0B968
:102F2000FFE740F2BC22C2F200021068019040F2BA
:102F3000C421C2F20001086810600198086042F6DE
:102F4000A031C2F20001086801300860FEF7DCFB26
:102F500000E0FFE7029842F69C31C2F200010968E6
:102F6000884268D3FFE7FFE740F2BC20C2F20000CE
:102F70000068006840B9FFE742F69C31C2F20001E8
:102F80004FF0FF30086055E040F2BC20C2F2000074
:102F90000068C068C0680590059840680490029871
:102FA0000499884207D2FFE7049842F69C31C2F2A6
:102FB000000108603EE0FFE705980430FEF7E8FDF9
:102FC0000598806A28B1FFE705981830FEF7E0FD04
:102FD00000E0FFE70598C06A42F23C71C2F20001CE
:102FE0000968884208D9FFE70598C06A42F23C7137
:102FF000C2F200010860FFE70599C86A00EB800291
:1030000040F2CC20C2F2000000EB82000431FEF757
:103010007DFE0598C06A40F2B421C2F20001096841
:10302000C96A884203D3FFE70120039000E0FFE76D
:10303000FFE799E7FFE740F2B420C2F20000006822
:10304000C06A00EB800140F2CC20C2F2000050F8D0
:103050002100022803D3FFE70120039000E0FFE7EF
:1030600042F60440C2F20000006818B1FFE70120F8
:10307000039000E0FFE707E042F6AC31C2F2000146
:10308000086801300860FFE7039806B080BD0000C3
:1030900080B584B0039003980290002001900398BB
:1030A000002844D0FFE70299086D013808650299AD
:1030B000C86AC96C884238D0FFE70298006D90BB9F
:1030C000FFE702980430FEF763FD08B9FFE700E070
:1030D000FFE70299C86CC8620299C86AC0F138005B
:1030E00088610298C06A42F23C71C2F2000109682C
:1030F000884208D9FFE70298C06A42F23C71C2F2E6
:1031000000010860FFE70299C86A00EB800240F204
:10311000CC20C2F2000000EB82000431FEF7F6FD85
:103120000120019000E0FFE700E0FFE700E0FFE79B
:10313000019804B080BD000080B584B0039003986E
:103140000290002001900398002878D0FFE70298B1
:10315000C06A40F2B421C2F200010968C96A88421B
:103160005CD2FFE70298C07E000600280BD4FFE780
:1031700040F2B420C2F200000068C06AC0F138001A
:103180000299886100E0FFE702994869C96A01EB8A
:10319000810240F2CC21C2F2000101EB820188429F
:1031A00030D1FFE702980430FEF7F2FC08B9FFE7E0
:1031B00000E0FFE740F2B420C2F200000068C06AFD
:1031C0000299C8620298C06A42F23C71C2F20001E0
:1031D0000968884208D9FFE70298C06A42F23C7148
:1031E000C2F200010860FFE70299C86A00EB8002A2
:1031F00040F2CC20C2F2000000EB82000431FEF766
:1032000085FD08E040F2B420C2F200000068C06A08
:103210000299C862FFE7012001900FE00298C06C9C
:1032200040F2B421C2F200010968C96A884203D29F
:10323000FFE70120019000E0FFE7FFE700E0FFE784
:10324000019804B080BD000080B584B0039003985D
:10325000C068C068029002981830FEF799FC42F2EC
:103260003470C2F20000006820BBFFE7029804300F
:10327000FEF78EFC0298C06A42F23C71C2F2000175
:103280000968884208D9FFE70298C06A42F23C7197
:10329000C2F200010860FFE70299C86A00EB8002F1
:1032A00040F2CC20C2F2000000EB82000431FEF7B5
:1032B0002DFD09E0029800F1180142F6B030C2F28B
:1032C0000000FEF723FDFFE70298C06A40F2B42138
:1032D000C2F200010968C96A884208D9FFE70120E3
:1032E000019042F60441C2F20001086002E00020B1
:1032F0000190FFE7019804B080BD000080B584B064
:10330000002003900290FEF71FFD42F23470C2F2DB
:1033100000000168013901600068002840F09980D0
:10332000FFE742F22C70C2F200000068002800F0B3
:103330008F80FFE7FFE742F6B030C2F2000000687E
:10334000002842D0FFE742F6B030C2F20000C06869
:10335000C068039003981830FEF71AFC03980430F5
:10336000FEF716FC0398C06A42F23C71C2F20001FB
:103370000968884208D9FFE70398C06A42F23C71A5
:10338000C2F200010860FFE70399C86A00EB8002FF
:1033900040F2CC20C2F2000000EB82000431FEF7C4
:1033A000B5FC0398C06A40F2B421C2F2000109687A
:1033B000C96A884207D3FFE742F60441C2F200011E
:1033C0000120086000E0FFE7B5E7039818B1FFE7C8
:1033D000FEF79AF9FFE742F6AC30C2F2000000684F
:1033E00001900198E0B1FFE7FFE7FFF781FD38B1F9
:1033F000FFE742F60441C2F200010120086000E04C
:10340000FFE7019801380190FFE701980028ECD10F
:10341000FFE742F6AC31C2F200010020086000E094
:10342000FFE742F60440C2F20000006870B1FFE717
:10343000012002904EF60451CEF200014FF0805070
:103440000860BFF34F8FBFF36F8F00E0FFE7FFE728
:1034500000E0FFE7FEF790FC029804B080BD00009A
:1034600080B588B000200790FDF77EFC42F6FC3066
:10347000C2F20000006858B3FFE7002003900690F6
:10348000059006A805A904AAFEF7CEFB039B049AA3
:103490000598DDF818C06946C1F808C048602820C2
:1034A000086041F6B900C0F6000043F28551C0F64D
:1034B0000001FFF7BDFC014642F60040C2F20000E9
:1034C0000160006818B1FFE701200790FFE700E006
:1034D000FFE7079808B080BD80B58AB0DDF830C03E
:1034E00009900891079206930020059042F6FC305F
:1034F000C2F200000068A8B3FFE70898019007989F
:10350000029009980390089805281EDCFFE7FFF752
:10351000C9FC02280CD1FFE742F6FC30C2F20000E1
:1035200000680C9A01A90023FFF758F905900BE0F9
:1035300042F6FC30C2F20000006801A900231A46DE
:10354000FFF74CF90590FFE70BE042F6FC30C2F2C2
:1035500000000068069A01A90023FFF7F5F905901D
:10356000FFE700E0FFE705980AB080BD4C45443115
:10357000004C454432004C454433004354524C0007
:1035800049444C4500546D7220537663000000009E
:10359000B0350008000000200800000050010008BD
:1035A000B835000808000020003200007001000853
:0835B00000A24A04AAAAAAAA7B
:04000005080000ED02
:00000001FF
